{
  "contractName": "RockPaperScissors",
  "abi": [
    {
      "inputs": [
        {
          "internalType": "uint256",
          "name": "_timeout",
          "type": "uint256"
        },
        {
          "internalType": "uint256",
          "name": "_minimumBet",
          "type": "uint256"
        },
        {
          "internalType": "uint256",
          "name": "_playerOneDeposit",
          "type": "uint256"
        }
      ],
      "stateMutability": "nonpayable",
      "type": "constructor"
    },
    {
      "anonymous": false,
      "inputs": [
        {
          "indexed": false,
          "internalType": "address",
          "name": "player",
          "type": "address"
        },
        {
          "indexed": false,
          "internalType": "enum RockPaperScissors.PlayerMove",
          "name": "move",
          "type": "uint8"
        }
      ],
      "name": "Move",
      "type": "event"
    },
    {
      "anonymous": false,
      "inputs": [
        {
          "indexed": false,
          "internalType": "enum RockPaperScissors.GameState",
          "name": "gameState",
          "type": "uint8"
        }
      ],
      "name": "State",
      "type": "event"
    },
    {
      "anonymous": false,
      "inputs": [
        {
          "indexed": false,
          "internalType": "address",
          "name": "playerOne",
          "type": "address"
        },
        {
          "indexed": false,
          "internalType": "address",
          "name": "playerTwo",
          "type": "address"
        },
        {
          "indexed": false,
          "internalType": "uint256",
          "name": "amount",
          "type": "uint256"
        }
      ],
      "name": "Tie",
      "type": "event"
    },
    {
      "anonymous": false,
      "inputs": [
        {
          "indexed": false,
          "internalType": "address",
          "name": "winner",
          "type": "address"
        },
        {
          "indexed": false,
          "internalType": "uint256",
          "name": "amount",
          "type": "uint256"
        }
      ],
      "name": "TimeOut",
      "type": "event"
    },
    {
      "anonymous": false,
      "inputs": [
        {
          "indexed": false,
          "internalType": "address",
          "name": "winner",
          "type": "address"
        },
        {
          "indexed": false,
          "internalType": "uint256",
          "name": "amount",
          "type": "uint256"
        }
      ],
      "name": "Winner",
      "type": "event"
    },
    {
      "inputs": [
        {
          "internalType": "address",
          "name": "",
          "type": "address"
        }
      ],
      "name": "balances",
      "outputs": [
        {
          "internalType": "uint256",
          "name": "",
          "type": "uint256"
        }
      ],
      "stateMutability": "view",
      "type": "function"
    },
    {
      "inputs": [],
      "name": "betSize",
      "outputs": [
        {
          "internalType": "uint256",
          "name": "",
          "type": "uint256"
        }
      ],
      "stateMutability": "view",
      "type": "function"
    },
    {
      "inputs": [],
      "name": "gameState",
      "outputs": [
        {
          "internalType": "enum RockPaperScissors.GameState",
          "name": "",
          "type": "uint8"
        }
      ],
      "stateMutability": "view",
      "type": "function"
    },
    {
      "inputs": [],
      "name": "minimumBet",
      "outputs": [
        {
          "internalType": "uint256",
          "name": "",
          "type": "uint256"
        }
      ],
      "stateMutability": "view",
      "type": "function"
    },
    {
      "inputs": [],
      "name": "movePlayerOne",
      "outputs": [
        {
          "internalType": "enum RockPaperScissors.PlayerMove",
          "name": "",
          "type": "uint8"
        }
      ],
      "stateMutability": "view",
      "type": "function"
    },
    {
      "inputs": [],
      "name": "movePlayerTwo",
      "outputs": [
        {
          "internalType": "enum RockPaperScissors.PlayerMove",
          "name": "",
          "type": "uint8"
        }
      ],
      "stateMutability": "view",
      "type": "function"
    },
    {
      "inputs": [],
      "name": "playerOne",
      "outputs": [
        {
          "internalType": "address",
          "name": "",
          "type": "address"
        }
      ],
      "stateMutability": "view",
      "type": "function"
    },
    {
      "inputs": [],
      "name": "playerOneDeposit",
      "outputs": [
        {
          "internalType": "uint256",
          "name": "",
          "type": "uint256"
        }
      ],
      "stateMutability": "view",
      "type": "function"
    },
    {
      "inputs": [],
      "name": "playerTwo",
      "outputs": [
        {
          "internalType": "address",
          "name": "",
          "type": "address"
        }
      ],
      "stateMutability": "view",
      "type": "function"
    },
    {
      "inputs": [],
      "name": "potSize",
      "outputs": [
        {
          "internalType": "uint256",
          "name": "",
          "type": "uint256"
        }
      ],
      "stateMutability": "view",
      "type": "function"
    },
    {
      "inputs": [],
      "name": "timeout",
      "outputs": [
        {
          "internalType": "uint256",
          "name": "",
          "type": "uint256"
        }
      ],
      "stateMutability": "view",
      "type": "function"
    },
    {
      "stateMutability": "payable",
      "type": "receive"
    },
    {
      "inputs": [
        {
          "internalType": "bytes32",
          "name": "hiddenMove",
          "type": "bytes32"
        }
      ],
      "name": "startGame",
      "outputs": [],
      "stateMutability": "payable",
      "type": "function"
    },
    {
      "inputs": [
        {
          "internalType": "enum RockPaperScissors.PlayerMove",
          "name": "move",
          "type": "uint8"
        }
      ],
      "name": "joinGame",
      "outputs": [],
      "stateMutability": "payable",
      "type": "function"
    },
    {
      "inputs": [
        {
          "internalType": "enum RockPaperScissors.PlayerMove",
          "name": "move",
          "type": "uint8"
        },
        {
          "internalType": "uint256",
          "name": "nonce",
          "type": "uint256"
        }
      ],
      "name": "revealMove",
      "outputs": [],
      "stateMutability": "nonpayable",
      "type": "function"
    },
    {
      "inputs": [],
      "name": "completeGame",
      "outputs": [],
      "stateMutability": "nonpayable",
      "type": "function"
    },
    {
      "inputs": [
        {
          "internalType": "address",
          "name": "target",
          "type": "address"
        }
      ],
      "name": "withdraw",
      "outputs": [],
      "stateMutability": "nonpayable",
      "type": "function"
    },
    {
      "inputs": [],
      "name": "getGameState",
      "outputs": [
        {
          "internalType": "enum RockPaperScissors.GameState",
          "name": "",
          "type": "uint8"
        }
      ],
      "stateMutability": "nonpayable",
      "type": "function"
    },
    {
      "inputs": [],
      "name": "getMinimumBet",
      "outputs": [
        {
          "internalType": "uint256",
          "name": "",
          "type": "uint256"
        }
      ],
      "stateMutability": "view",
      "type": "function"
    },
    {
      "inputs": [],
      "name": "timeoutAt",
      "outputs": [
        {
          "internalType": "uint256",
          "name": "",
          "type": "uint256"
        }
      ],
      "stateMutability": "view",
      "type": "function"
    },
    {
      "inputs": [
        {
          "internalType": "enum RockPaperScissors.PlayerMove",
          "name": "_move",
          "type": "uint8"
        },
        {
          "internalType": "uint256",
          "name": "_nonce",
          "type": "uint256"
        }
      ],
      "name": "getMessageHash",
      "outputs": [
        {
          "internalType": "bytes32",
          "name": "",
          "type": "bytes32"
        }
      ],
      "stateMutability": "pure",
      "type": "function"
    }
  ],
  "bytecode": "0x6080604052604051806060016040528060405180606001604052806000800b60000b81526020017fffffffffffffffffffffffffffffffffffffffffffffffffffffffffffffffff60000b60000b8152602001600160000b60000b81525081526020016040518060600160405280600160000b60000b81526020016000800b60000b81526020017fffffffffffffffffffffffffffffffffffffffffffffffffffffffffffffffff60000b60000b815250815260200160405180606001604052807fffffffffffffffffffffffffffffffffffffffffffffffffffffffffffffffff60000b60000b8152602001600160000b60000b81526020016000800b60000b8152508152506000906003620001189291906200016a565b503480156200012657600080fd5b50604051620025d2380380620025d283398181016040528101906200014c9190620002c8565b8260038190555081600481905550806005819055505050506200034d565b8260038101928215620001ac579160200282015b82811115620001ab578251829060036200019a929190620001bf565b50916020019190600101906200017e565b5b509050620001bb919062000263565b5090565b826003601f01602090048101928215620002505791602002820160005b838211156200021f57835183826101000a81548160ff021916908360000b60ff1602179055509260200192600101602081600001049283019260010302620001dc565b80156200024e5782816101000a81549060ff02191690556001016020816000010492830192600103026200021f565b505b5090506200025f91906200028b565b5090565b5b808211156200028757600081816200027d9190620002aa565b5060010162000264565b5090565b5b80821115620002a65760008160009055506001016200028c565b5090565b5060009055565b600081519050620002c28162000333565b92915050565b600080600060608486031215620002e457620002e36200032e565b5b6000620002f486828701620002b1565b93505060206200030786828701620002b1565b92505060406200031a86828701620002b1565b9150509250925092565b6000819050919050565b600080fd5b6200033e8162000324565b81146200034a57600080fd5b50565b612275806200035d6000396000f3fe6080604052600436106101235760003560e01c806368b6d55d116100a0578063b7d0628b11610064578063b7d0628b146103ca578063bcffcf41146103f5578063c38a8afd14610420578063d0ae92fb1461044b578063d1f9c24d1461046757610143565b806368b6d55d1461030757806370dea79a146103325780637b51b4ad1461035d578063839930ba146103745780639b38bb1d1461039f57610143565b80634c92fb12116100e75780634c92fb12146102415780634fed41761461025d57806351cff8d91461028857806356cd95dd146102b15780635d1d3e26146102dc57610143565b80630a9f85dd14610148578063102e58d014610173578063185215861461019e5780631f683f24146101db57806327e235e31461020457610143565b3661014357346009600082825461013a9190611c45565b92505081905550005b600080fd5b34801561015457600080fd5b5061015d610492565b60405161016a9190611990565b60405180910390f35b34801561017f57600080fd5b506101886104b8565b6040516101959190611c0e565b60405180910390f35b3480156101aa57600080fd5b506101c560048036038101906101c0919061174c565b6104cf565b6040516101d29190611a34565b60405180910390f35b3480156101e757600080fd5b5061020260048036038101906101fd919061174c565b610502565b005b34801561021057600080fd5b5061022b600480360381019061022691906116c5565b6106ae565b6040516102389190611c0e565b60405180910390f35b61025b600480360381019061025691906116f2565b6106c6565b005b34801561026957600080fd5b50610272610812565b60405161027f9190611a6a565b60405180910390f35b34801561029457600080fd5b506102af60048036038101906102aa91906116c5565b610825565b005b3480156102bd57600080fd5b506102c66109eb565b6040516102d39190611c0e565b60405180910390f35b3480156102e857600080fd5b506102f16109f1565b6040516102fe9190611c0e565b60405180910390f35b34801561031357600080fd5b5061031c6109f7565b6040516103299190611c0e565b60405180910390f35b34801561033e57600080fd5b506103476109fd565b6040516103549190611c0e565b60405180910390f35b34801561036957600080fd5b50610372610a03565b005b34801561038057600080fd5b50610389611317565b6040516103969190611c0e565b60405180910390f35b3480156103ab57600080fd5b506103b4611321565b6040516103c19190611a6a565b60405180910390f35b3480156103d657600080fd5b506103df611334565b6040516103ec9190611a4f565b60405180910390f35b34801561040157600080fd5b5061040a611391565b6040516104179190611990565b60405180910390f35b34801561042c57600080fd5b506104356113b7565b6040516104429190611c0e565b60405180910390f35b6104656004803603810190610460919061171f565b6113bd565b005b34801561047357600080fd5b5061047c6115d2565b6040516104899190611a4f565b60405180910390f35b600d60019054906101000a900473ffffffffffffffffffffffffffffffffffffffff1681565b60006003546008546104ca9190611c45565b905090565b600082826040516020016104e4929190611a85565b60405160208183030381529060405280519060200120905092915050565b6002600381111561051657610515611e1d565b5b600760009054906101000a900460ff16600381111561053857610537611e1d565b5b14610578576040517f08c379a000000000000000000000000000000000000000000000000000000000815260040161056f90611b8e565b60405180910390fd5b600061058483836104cf565b9050600c54811461059857610597611d90565b5b82600d60006101000a81548160ff021916908360028111156105bd576105bc611e1d565b5b021790555060055460066000600b60009054906101000a900473ffffffffffffffffffffffffffffffffffffffff1673ffffffffffffffffffffffffffffffffffffffff1673ffffffffffffffffffffffffffffffffffffffff16815260200190815260200160002060008282546106359190611c45565b925050819055507fd486700328cc088fc74588e343743fb85ffab7236e072453f4d8b4aa7d8bf615600b60009054906101000a900473ffffffffffffffffffffffffffffffffffffffff168460405161068f9291906119e2565b60405180910390a16106a160036115e5565b6106a9610a03565b505050565b60066020528060005260406000206000915090505481565b600060038111156106da576106d9611e1d565b5b600760009054906101000a900460ff1660038111156106fc576106fb611e1d565b5b1461073c576040517f08c379a000000000000000000000000000000000000000000000000000000000815260040161073390611b4e565b60405180910390fd5b60055460045461074c9190611c45565b34101561078e576040517f08c379a000000000000000000000000000000000000000000000000000000000815260040161078590611ace565b60405180910390fd5b6005543461079c9190611ccc565b600a81905550600a54600960008282546107b69190611c45565b9250508190555033600b60006101000a81548173ffffffffffffffffffffffffffffffffffffffff021916908373ffffffffffffffffffffffffffffffffffffffff16021790555080600c8190555061080f60016115e5565b50565b600d60009054906101000a900460ff1681565b6000600660003373ffffffffffffffffffffffffffffffffffffffff1673ffffffffffffffffffffffffffffffffffffffff16815260200190815260200160002054116108a7576040517f08c379a000000000000000000000000000000000000000000000000000000000815260040161089e90611aee565b60405180910390fd5b6000600660003373ffffffffffffffffffffffffffffffffffffffff1673ffffffffffffffffffffffffffffffffffffffff1681526020019081526020016000205490506000600660003373ffffffffffffffffffffffffffffffffffffffff1673ffffffffffffffffffffffffffffffffffffffff1681526020019081526020016000208190555060008273ffffffffffffffffffffffffffffffffffffffff16826040516109569061197b565b60006040518083038185875af1925050503d8060008114610993576040519150601f19603f3d011682016040523d82523d6000602084013e610998565b606091505b50509050806109e65781600660003373ffffffffffffffffffffffffffffffffffffffff1673ffffffffffffffffffffffffffffffffffffffff168152602001908152602001600020819055505b505050565b60055481565b600a5481565b60095481565b60035481565b60006003811115610a1757610a16611e1d565b5b600760009054906101000a900460ff166003811115610a3957610a38611e1d565b5b1415610a7a576040517f08c379a0000000000000000000000000000000000000000000000000000000008152600401610a7190611aae565b60405180910390fd5b60016003811115610a8e57610a8d611e1d565b5b600760009054906101000a900460ff166003811115610ab057610aaf611e1d565b5b1415610c5357610abe61165f565b610afd576040517f08c379a0000000000000000000000000000000000000000000000000000000008152600401610af490611b6e565b60405180910390fd5b60095460066000600b60009054906101000a900473ffffffffffffffffffffffffffffffffffffffff1673ffffffffffffffffffffffffffffffffffffffff1673ffffffffffffffffffffffffffffffffffffffff1681526020019081526020016000206000828254610b709190611c45565b9250508190555060055460066000600b60009054906101000a900473ffffffffffffffffffffffffffffffffffffffff1673ffffffffffffffffffffffffffffffffffffffff1673ffffffffffffffffffffffffffffffffffffffff1681526020019081526020016000206000828254610bea9190611c45565b925050819055507f2200139c683f381b48be5d73bb6a61dec6614fe48f4c62652d35077c7ad19aad600b60009054906101000a900473ffffffffffffffffffffffffffffffffffffffff16600954604051610c46929190611a0b565b60405180910390a161128b565b60026003811115610c6757610c66611e1d565b5b600760009054906101000a900460ff166003811115610c8957610c88611e1d565b5b1415610e2c57610c9761165f565b610cd6576040517f08c379a0000000000000000000000000000000000000000000000000000000008152600401610ccd90611bce565b60405180910390fd5b60095460066000600d60019054906101000a900473ffffffffffffffffffffffffffffffffffffffff1673ffffffffffffffffffffffffffffffffffffffff1673ffffffffffffffffffffffffffffffffffffffff1681526020019081526020016000206000828254610d499190611c45565b9250508190555060055460066000600d60019054906101000a900473ffffffffffffffffffffffffffffffffffffffff1673ffffffffffffffffffffffffffffffffffffffff1673ffffffffffffffffffffffffffffffffffffffff1681526020019081526020016000206000828254610dc39190611c45565b925050819055507f2200139c683f381b48be5d73bb6a61dec6614fe48f4c62652d35077c7ad19aad600d60019054906101000a900473ffffffffffffffffffffffffffffffffffffffff16600954604051610e1f929190611a0b565b60405180910390a161128a565b600380811115610e3f57610e3e611e1d565b5b600760009054906101000a900460ff166003811115610e6157610e60611e1d565b5b141561124e57600080600d60009054906101000a900460ff166002811115610e8c57610e8b611e1d565b5b60038110610e9d57610e9c611e4c565b5b01600d60159054906101000a900460ff166002811115610ec057610ebf611e1d565b5b60038110610ed157610ed0611e4c565b5b602091828204019190069054906101000a900460000b905060008160000b1315610fd15760095460066000600b60009054906101000a900473ffffffffffffffffffffffffffffffffffffffff1673ffffffffffffffffffffffffffffffffffffffff1673ffffffffffffffffffffffffffffffffffffffff1681526020019081526020016000206000828254610f689190611c45565b925050819055507f9c2270628a9b29d30ae96b6c4c14ed646ee134febdce38a5b77f2bde9cea2e20600b60009054906101000a900473ffffffffffffffffffffffffffffffffffffffff16600954604051610fc4929190611a0b565b60405180910390a1611248565b60008160000b12156110b95760095460066000600d60019054906101000a900473ffffffffffffffffffffffffffffffffffffffff1673ffffffffffffffffffffffffffffffffffffffff1673ffffffffffffffffffffffffffffffffffffffff16815260200190815260200160002060008282546110509190611c45565b925050819055507f9c2270628a9b29d30ae96b6c4c14ed646ee134febdce38a5b77f2bde9cea2e20600d60019054906101000a900473ffffffffffffffffffffffffffffffffffffffff166009546040516110ac929190611a0b565b60405180910390a1611247565b60026009546110c89190611c9b565b60066000600b60009054906101000a900473ffffffffffffffffffffffffffffffffffffffff1673ffffffffffffffffffffffffffffffffffffffff1673ffffffffffffffffffffffffffffffffffffffff16815260200190815260200160002060008282546111389190611c45565b92505081905550600260095461114e9190611c9b565b60066000600d60019054906101000a900473ffffffffffffffffffffffffffffffffffffffff1673ffffffffffffffffffffffffffffffffffffffff1673ffffffffffffffffffffffffffffffffffffffff16815260200190815260200160002060008282546111be9190611c45565b925050819055507f64fdcddd300ff9c4b278928c5c87d05b624353091c2da92d513a7c421dc99a6a600b60009054906101000a900473ffffffffffffffffffffffffffffffffffffffff16600d60019054906101000a900473ffffffffffffffffffffffffffffffffffffffff1660095460405161123e939291906119ab565b60405180910390a15b5b50611289565b6040517f08c379a000000000000000000000000000000000000000000000000000000000815260040161128090611bae565b60405180910390fd5b5b5b600960009055600a60009055600b60006101000a81549073ffffffffffffffffffffffffffffffffffffffff0219169055600c60009055600d60006101000a81549060ff0219169055600d60016101000a81549073ffffffffffffffffffffffffffffffffffffffff0219169055600d60156101000a81549060ff021916905561131560006115e5565b565b6000600454905090565b600d60159054906101000a900460ff1681565b60007f585ac5ab52c78ef2cba178d5ceab02a9085d4d956d66fd8f0111bdb24fad22b5600760009054906101000a900460ff166040516113749190611a4f565b60405180910390a1600760009054906101000a900460ff16905090565b600b60009054906101000a900473ffffffffffffffffffffffffffffffffffffffff1681565b60045481565b600160038111156113d1576113d0611e1d565b5b600760009054906101000a900460ff1660038111156113f3576113f2611e1d565b5b14611433576040517f08c379a000000000000000000000000000000000000000000000000000000000815260040161142a90611b0e565b60405180910390fd5b600a543414611477576040517f08c379a000000000000000000000000000000000000000000000000000000000815260040161146e90611bee565b60405180910390fd5b600b60009054906101000a900473ffffffffffffffffffffffffffffffffffffffff1673ffffffffffffffffffffffffffffffffffffffff163373ffffffffffffffffffffffffffffffffffffffff161415611508576040517f08c379a00000000000000000000000000000000000000000000000000000000081526004016114ff90611b2e565b60405180910390fd5b346009600082825461151a9190611c45565b9250508190555033600d60016101000a81548173ffffffffffffffffffffffffffffffffffffffff021916908373ffffffffffffffffffffffffffffffffffffffff16021790555080600d60156101000a81548160ff0219169083600281111561158757611586611e1d565b5b02179055507fd486700328cc088fc74588e343743fb85ffab7236e072453f4d8b4aa7d8bf61533826040516115bd9291906119e2565b60405180910390a16115cf60026115e5565b50565b600760009054906101000a900460ff1681565b80600760006101000a81548160ff0219169083600381111561160a57611609611e1d565b5b0217905550426008819055507f585ac5ab52c78ef2cba178d5ceab02a9085d4d956d66fd8f0111bdb24fad22b5600760009054906101000a900460ff166040516116549190611a4f565b60405180910390a150565b60006116696104b8565b421015905090565b600081359050611680816121ea565b92915050565b60008135905061169581612201565b92915050565b6000813590506116aa81612218565b92915050565b6000813590506116bf81612228565b92915050565b6000602082840312156116db576116da611e7b565b5b60006116e984828501611671565b91505092915050565b60006020828403121561170857611707611e7b565b5b600061171684828501611686565b91505092915050565b60006020828403121561173557611734611e7b565b5b60006117438482850161169b565b91505092915050565b6000806040838503121561176357611762611e7b565b5b60006117718582860161169b565b9250506020611782858286016116b0565b9150509250929050565b61179581611d00565b82525050565b6117a481611d12565b82525050565b6117b381611d6c565b82525050565b6117c281611d7e565b82525050565b60006117d5602c83611c34565b91506117e082611e80565b604082019050919050565b60006117f8603283611c34565b915061180382611ecf565b604082019050919050565b600061181b602283611c34565b915061182682611f1e565b604082019050919050565b600061183e603e83611c34565b915061184982611f6d565b604082019050919050565b6000611861601d83611c34565b915061186c82611fbc565b602082019050919050565b6000611884601a83611c34565b915061188f82611fe5565b602082019050919050565b60006118a7604283611c34565b91506118b28261200e565b606082019050919050565b60006118ca600083611c29565b91506118d582612083565b600082019050919050565b60006118ed604183611c34565b91506118f882612086565b606082019050919050565b6000611910601383611c34565b915061191b826120fb565b602082019050919050565b6000611933603d83611c34565b915061193e82612124565b604082019050919050565b6000611956602683611c34565b915061196182612173565b604082019050919050565b61197581611d62565b82525050565b6000611986826118bd565b9150819050919050565b60006020820190506119a5600083018461178c565b92915050565b60006060820190506119c0600083018661178c565b6119cd602083018561178c565b6119da604083018461196c565b949350505050565b60006040820190506119f7600083018561178c565b611a0460208301846117b9565b9392505050565b6000604082019050611a20600083018561178c565b611a2d602083018461196c565b9392505050565b6000602082019050611a49600083018461179b565b92915050565b6000602082019050611a6460008301846117aa565b92915050565b6000602082019050611a7f60008301846117b9565b92915050565b6000604082019050611a9a60008301856117b9565b611aa7602083018461196c565b9392505050565b60006020820190508181036000830152611ac7816117c8565b9050919050565b60006020820190508181036000830152611ae7816117eb565b9050919050565b60006020820190508181036000830152611b078161180e565b9050919050565b60006020820190508181036000830152611b2781611831565b9050919050565b60006020820190508181036000830152611b4781611854565b9050919050565b60006020820190508181036000830152611b6781611877565b9050919050565b60006020820190508181036000830152611b878161189a565b9050919050565b60006020820190508181036000830152611ba7816118e0565b9050919050565b60006020820190508181036000830152611bc781611903565b9050919050565b60006020820190508181036000830152611be781611926565b9050919050565b60006020820190508181036000830152611c0781611949565b9050919050565b6000602082019050611c23600083018461196c565b92915050565b600081905092915050565b600082825260208201905092915050565b6000611c5082611d62565b9150611c5b83611d62565b9250827fffffffffffffffffffffffffffffffffffffffffffffffffffffffffffffffff03821115611c9057611c8f611dbf565b5b828201905092915050565b6000611ca682611d62565b9150611cb183611d62565b925082611cc157611cc0611dee565b5b828204905092915050565b6000611cd782611d62565b9150611ce283611d62565b925082821015611cf557611cf4611dbf565b5b828203905092915050565b6000611d0b82611d42565b9050919050565b6000819050919050565b6000819050611d2a826121c2565b919050565b6000819050611d3d826121d6565b919050565b600073ffffffffffffffffffffffffffffffffffffffff82169050919050565b6000819050919050565b6000611d7782611d1c565b9050919050565b6000611d8982611d2f565b9050919050565b7f4e487b7100000000000000000000000000000000000000000000000000000000600052600160045260246000fd5b7f4e487b7100000000000000000000000000000000000000000000000000000000600052601160045260246000fd5b7f4e487b7100000000000000000000000000000000000000000000000000000000600052601260045260246000fd5b7f4e487b7100000000000000000000000000000000000000000000000000000000600052602160045260246000fd5b7f4e487b7100000000000000000000000000000000000000000000000000000000600052603260045260246000fd5b600080fd5b7f43616e6e6f7420636f6d706c65746520612067616d65207768656e206e6f6e6560008201527f2069732072756e6e696e67210000000000000000000000000000000000000000602082015250565b7f4e6f7420656e6f75676820636f696e732073656e7420666f72206d696e696d7560008201527f6d2062657420616e64206465706f736974210000000000000000000000000000602082015250565b7f43616e6e6f7420776974686472617720776974686f757420612062616c616e6360008201527f6521000000000000000000000000000000000000000000000000000000000000602082015250565b7f43616e6e6f74206a6f696e20612067616d65207768656e206974206973206e6f60008201527f742077616974696e6720666f722061207365636f6e6420706c61796572210000602082015250565b7f43616e6e6f7420706c617920616761696e737420796f757273656c6621000000600082015250565b7f412067616d6520697320616c72656164792072756e6e696e6721000000000000600082015250565b7f43616e6e6f7420636f6d706c65746520612067616d6520776974686f7574206160008201527f207365636f6e6420706c61796572206265666f7265207468652074696d656f7560208201527f7421000000000000000000000000000000000000000000000000000000000000604082015250565b50565b7f43616e6e6f742072657665616c20746865206d6f7665207768656e207468652060008201527f67616d65206973206e6f742077616974696e6720666f7220612072657665616c60208201527f2100000000000000000000000000000000000000000000000000000000000000604082015250565b7f496e76616c69642067616d652073746174652100000000000000000000000000600082015250565b7f43616e6e6f7420636f6d706c65746520612067616d652077616974696e67206660008201527f6f722072657665616c206265666f7265207468652074696d656f757421000000602082015250565b7f506c6561736520737570706c792065786163746c79206062657453697a65602060008201527f636f696e73210000000000000000000000000000000000000000000000000000602082015250565b600481106121d3576121d2611e1d565b5b50565b600381106121e7576121e6611e1d565b5b50565b6121f381611d00565b81146121fe57600080fd5b50565b61220a81611d12565b811461221557600080fd5b50565b6003811061222557600080fd5b50565b61223181611d62565b811461223c57600080fd5b5056fea26469706673582212200b500343265331a8d61ad230adff9f8d4f0f105e8ae6fbf8b93e194d592136fa64736f6c63430008070033",
  "immutableReferences": {},
  "source": "// SPDX-License-Identifier: GPL-3.0\r\npragma solidity 0.8.7;\r\n\r\ncontract RockPaperScissors {\r\n\r\n    /**\r\n     * @notice Possible moves for the game\r\n     * Rock - 0\r\n     * Paper - 1\r\n     * Scissors - 2\r\n     */\r\n    enum PlayerMove {\r\n        Rock,\r\n        Paper,\r\n        Scissors\r\n    }\r\n\r\n    /**\r\n     * Stopped - 0\r\n     * WaitingForPlayerTwo - 1\r\n     * WaitingForReveal - 2\r\n     * WaitingForCompletion - 3\r\n     */\r\n    enum GameState {\r\n        Stopped,\r\n        WaitingForPlayerTwo,\r\n        WaitingForReveal,\r\n        WaitingForCompletion\r\n    }\r\n\r\n    int8[3][3] checkWinner = [\r\n        [int8(0), int8(-1), int8(1)],\r\n        [int8(1), int8(0), int8(-1)],\r\n        [int8(-1), int8(1), int8(0)]\r\n    ];\r\n\r\n    /**\r\n     * @notice Event emitted when a player submits or reveals a move\r\n     * @param gameState The submitted or revealed move\r\n     */\r\n    event State(GameState gameState);\r\n\r\n    /**\r\n     * @notice Event emitted when a player submits or reveals a move\r\n     * @param player The address of the player making or revealing the move\r\n     * @param move The submitted or revealed move\r\n     */\r\n    event Move(address player, PlayerMove move);\r\n\r\n    /**\r\n     * @notice Event emitted when a player wins the game due to their move\r\n     * @param winner The winning player's address\r\n     * @param amount The amount of coins won\r\n     */\r\n    event Winner(address winner, uint256 amount);\r\n\r\n    /**\r\n     * @notice Event emitted when the game results in a tie\r\n     * @param playerOne The first player's address\r\n     * @param playerTwo The second player's address\r\n     * @param amount The amount of coins divided among both players\r\n     */\r\n    event Tie(address playerOne, address playerTwo, uint256 amount);\r\n\r\n    /**\r\n     * @notice Event emitted when the game ends due to a timeout\r\n     * @param winner The address of the player winning due to the timeout\r\n     * @param amount The amount of coins won\r\n     */\r\n    event TimeOut(address winner, uint256 amount);\r\n\r\n    /**\r\n     * @notice The timeout (in seconds) after which the game can be completed without waiting for the opponent's action\r\n     */\r\n    uint public timeout;\r\n\r\n    /**\r\n     * @notice The minimum amount to bet when starting a new game\r\n     */\r\n    uint public minimumBet;\r\n\r\n    /**\r\n     * @notice The safety deposit to be made by Player One. Will be refunded when the move is revealed.\r\n     */\r\n    uint public playerOneDeposit;\r\n\r\n    mapping(address => uint256) public balances;\r\n\r\n    GameState public gameState;\r\n    uint256 lastActionTimestamp;\r\n\r\n    /**\r\n     * @notice The pot, i.e. the amount of money that can be won\r\n     */\r\n    uint256 public potSize;\r\n\r\n    /**\r\n     * @notice The bet, i.e. the amount of money that needs to be sent to join the game\r\n     */\r\n    uint256 public betSize;\r\n\r\n    address public playerOne;\r\n    bytes32 hiddenMovePlayerOne;\r\n    PlayerMove public movePlayerOne;\r\n\r\n    address public playerTwo;\r\n    PlayerMove public movePlayerTwo;\r\n\r\n    /**\r\n     * @notice Accepts coins to add to the pot. Sender is not registered as a player!\r\n     */\r\n    receive() external payable {\r\n        potSize += msg.value;\r\n    }\r\n\r\n    constructor(uint256 _timeout, uint256 _minimumBet, uint256 _playerOneDeposit)  { \r\n        timeout = _timeout;\r\n        minimumBet = _minimumBet;\r\n        playerOneDeposit = _playerOneDeposit;\r\n    }\r\n\r\n    function startGame(bytes32 hiddenMove) external payable {\r\n        require(gameState == GameState.Stopped, \"A game is already running!\");\r\n        require(msg.value >= minimumBet + playerOneDeposit, \"Not enough coins sent for minimum bet and deposit!\");\r\n        \r\n        betSize = msg.value - playerOneDeposit;\r\n        potSize += betSize;\r\n        playerOne = msg.sender;\r\n        hiddenMovePlayerOne = hiddenMove;\r\n\r\n        setGameState(GameState.WaitingForPlayerTwo);\r\n    }\r\n\r\n    function joinGame(PlayerMove move) external payable {\r\n\r\n        require(gameState == GameState.WaitingForPlayerTwo, \"Cannot join a game when it is not waiting for a second player!\");\r\n        require(msg.value == betSize, \"Please supply exactly `betSize` coins!\");\r\n        require(msg.sender != playerOne, \"Cannot play against yourself!\");\r\n\r\n        potSize += msg.value;\r\n        playerTwo = msg.sender;\r\n        movePlayerTwo = move;\r\n\r\n        emit Move(msg.sender, move);\r\n\r\n        setGameState(GameState.WaitingForReveal);\r\n    }\r\n\r\n    function revealMove(PlayerMove move, uint256 nonce) external  {\r\n        require(gameState == GameState.WaitingForReveal, \"Cannot reveal the move when the game is not waiting for a reveal!\");\r\n\r\n        bytes32 hashed = getMessageHash(move, nonce);\r\n        assert(hashed == hiddenMovePlayerOne);\r\n        movePlayerOne = move;\r\n        balances[playerOne] += playerOneDeposit;\r\n\r\n        emit Move(playerOne, move);\r\n\r\n        setGameState(GameState.WaitingForCompletion);\r\n\r\n        completeGame();\r\n    }\r\n\r\n    function completeGame() public {\r\n        require(gameState != GameState.Stopped, \"Cannot complete a game when none is running!\");\r\n\r\n        if (gameState == GameState.WaitingForPlayerTwo) {\r\n            require(isTimedOut(), \"Cannot complete a game without a second player before the timeout!\");\r\n\r\n            balances[playerOne] += potSize;\r\n            balances[playerOne] += playerOneDeposit;\r\n\r\n            emit TimeOut(playerOne, potSize);\r\n        }\r\n        else if (gameState == GameState.WaitingForReveal) {\r\n            require(isTimedOut(), \"Cannot complete a game waiting for reveal before the timeout!\");\r\n\r\n            balances[playerTwo] += potSize;\r\n            balances[playerTwo] += playerOneDeposit;\r\n\r\n            emit TimeOut(playerTwo, potSize);\r\n        } else if (gameState == GameState.WaitingForCompletion) {\r\n            int8 winner = checkWinner[uint(movePlayerOne)][uint(movePlayerTwo)];\r\n\r\n            if (winner > 0) {\r\n                balances[playerOne] += potSize;\r\n\r\n                emit Winner(playerOne, potSize);\r\n            } else if (winner < 0) {\r\n                balances[playerTwo] += potSize;\r\n\r\n                emit Winner(playerTwo, potSize);\r\n            } else {\r\n                balances[playerOne] += potSize / 2;\r\n                balances[playerTwo] += potSize / 2;\r\n\r\n                emit Tie(playerOne, playerTwo, potSize);\r\n            }\r\n        } else {\r\n            revert(\"Invalid game state!\");\r\n        }\r\n\r\n        delete potSize;\r\n        delete betSize;\r\n        delete playerOne;\r\n        delete hiddenMovePlayerOne;\r\n        delete movePlayerOne;\r\n        delete playerTwo;\r\n        delete movePlayerTwo;\r\n\r\n        setGameState(GameState.Stopped);\r\n    }\r\n\r\n    /**\r\n     * @notice Withdraws coins from the sender's internal balance\r\n     * @param target The address to send coins to\r\n     */\r\n    function withdraw(address target) external {\r\n        require(balances[msg.sender] > 0, \"Cannot withdraw without a balance!\");\r\n\r\n        uint256 balanceToTransfer = balances[msg.sender];\r\n        balances[msg.sender] = 0;\r\n        (bool success,) = target.call{value: balanceToTransfer}(\"\");\r\n\r\n        if (!success) {\r\n            balances[msg.sender] = balanceToTransfer;\r\n        }\r\n    }\r\n\r\n    function getGameState() external returns (GameState) {\r\n        emit State(gameState);\r\n        return gameState;\r\n    }\r\n\r\n    function getMinimumBet() external view returns (uint) {\r\n        return minimumBet;\r\n    }\r\n\r\n    function setGameState(GameState newState) private {\r\n        gameState = newState;\r\n        lastActionTimestamp = block.timestamp;\r\n        emit State(gameState);\r\n    }\r\n\r\n\r\n    /**\r\n     * @notice Specifies when a game can be completed due to a timeout\r\n     * @return The UNIX timestamp at which the game can be completed\r\n     */\r\n    function timeoutAt() public view returns (uint256) {\r\n        return lastActionTimestamp + timeout;\r\n    }\r\n\r\n    function isTimedOut() private view returns (bool) {\r\n        return block.timestamp >= timeoutAt();\r\n    }\r\n\r\n    function getMessageHash(PlayerMove _move, uint256 _nonce) public pure returns (bytes32) {\r\n        return keccak256(abi.encode(_move, _nonce));\r\n    }\r\n\r\n}\r\n",
  "sourcePath": "C:\\Users\\lalan\\Desktop\\rock-paper-scissors\\contracts\\RockPaperScissors.sol",
  "compiler": {
    "name": "solc",
    "version": "0.8.7+commit.e28d00a7.Emscripten.clang"
  },
  "schemaVersion": "3.4.7",
  "updatedAt": "2022-06-06T19:28:07.699Z",
  "devdoc": {
    "events": {
      "Move(address,uint8)": {
        "params": {
          "move": "The submitted or revealed move",
          "player": "The address of the player making or revealing the move"
        }
      },
      "State(uint8)": {
        "params": {
          "gameState": "The submitted or revealed move"
        }
      },
      "Tie(address,address,uint256)": {
        "params": {
          "amount": "The amount of coins divided among both players",
          "playerOne": "The first player's address",
          "playerTwo": "The second player's address"
        }
      },
      "TimeOut(address,uint256)": {
        "params": {
          "amount": "The amount of coins won",
          "winner": "The address of the player winning due to the timeout"
        }
      },
      "Winner(address,uint256)": {
        "params": {
          "amount": "The amount of coins won",
          "winner": "The winning player's address"
        }
      }
    },
    "kind": "dev",
    "methods": {
      "timeoutAt()": {
        "returns": {
          "_0": "The UNIX timestamp at which the game can be completed"
        }
      },
      "withdraw(address)": {
        "params": {
          "target": "The address to send coins to"
        }
      }
    },
    "version": 1
  },
  "userdoc": {
    "events": {
      "Move(address,uint8)": {
        "notice": "Event emitted when a player submits or reveals a move"
      },
      "State(uint8)": {
        "notice": "Event emitted when a player submits or reveals a move"
      },
      "Tie(address,address,uint256)": {
        "notice": "Event emitted when the game results in a tie"
      },
      "TimeOut(address,uint256)": {
        "notice": "Event emitted when the game ends due to a timeout"
      },
      "Winner(address,uint256)": {
        "notice": "Event emitted when a player wins the game due to their move"
      }
    },
    "kind": "user",
    "methods": {
      "betSize()": {
        "notice": "The bet, i.e. the amount of money that needs to be sent to join the game"
      },
      "minimumBet()": {
        "notice": "The minimum amount to bet when starting a new game"
      },
      "playerOneDeposit()": {
        "notice": "The safety deposit to be made by Player One. Will be refunded when the move is revealed."
      },
      "potSize()": {
        "notice": "The pot, i.e. the amount of money that can be won"
      },
      "timeout()": {
        "notice": "The timeout (in seconds) after which the game can be completed without waiting for the opponent's action"
      },
      "timeoutAt()": {
        "notice": "Specifies when a game can be completed due to a timeout"
      },
      "withdraw(address)": {
        "notice": "Withdraws coins from the sender's internal balance"
      }
    },
    "version": 1
  }
}